{
  "contractName": "AccessControlManager",
  "abi": [
    {
      "constant": false,
      "inputs": [
        {
          "name": "fileHash",
          "type": "string"
        },
        {
          "name": "token",
          "type": "string"
        }
      ],
      "name": "UploadFile",
      "outputs": [],
      "payable": false,
      "stateMutability": "nonpayable",
      "type": "function"
    },
    {
      "constant": false,
      "inputs": [
        {
          "name": "fileHash",
          "type": "string"
        },
        {
          "name": "userId",
          "type": "address"
        },
        {
          "name": "token",
          "type": "string"
        },
        {
          "name": "role",
          "type": "uint256"
        },
        {
          "name": "isGrant",
          "type": "bool"
        }
      ],
      "name": "AmendAccess",
      "outputs": [],
      "payable": false,
      "stateMutability": "nonpayable",
      "type": "function"
    },
    {
      "constant": true,
      "inputs": [
        {
          "name": "fileHash",
          "type": "string"
        }
      ],
      "name": "DownloadFile",
      "outputs": [
        {
          "name": "",
          "type": "bool"
        }
      ],
      "payable": false,
      "stateMutability": "view",
      "type": "function"
    },
    {
      "constant": true,
      "inputs": [],
      "name": "GetFileCount",
      "outputs": [
        {
          "name": "",
          "type": "uint256"
        }
      ],
      "payable": false,
      "stateMutability": "view",
      "type": "function"
    },
    {
      "constant": true,
      "inputs": [
        {
          "name": "index",
          "type": "uint256"
        }
      ],
      "name": "GetFileName",
      "outputs": [
        {
          "name": "",
          "type": "string"
        }
      ],
      "payable": false,
      "stateMutability": "view",
      "type": "function"
    },
    {
      "constant": true,
      "inputs": [
        {
          "name": "fileHash",
          "type": "string"
        }
      ],
      "name": "GetToken",
      "outputs": [
        {
          "name": "",
          "type": "string"
        }
      ],
      "payable": false,
      "stateMutability": "view",
      "type": "function"
    }
  ],
  "bytecode": "0x6060604052341561000f57600080fd5b61127a8061001e6000396000f300606060405260043610610078576000357c0100000000000000000000000000000000000000000000000000000000900463ffffffff1680632368e3231461007d5780632b0abfd31461011d5780632b358341146101925780635db037b4146101bb578063858b8fe41461028e578063d5a31c181461032a575b600080fd5b341561008857600080fd5b61011b600480803590602001908201803590602001908080601f0160208091040260200160405190810160405280939291908181526020018383808284378201915050505050509190803590602001908201803590602001908080601f01602080910402602001604051908101604052809392919081815260200183838082843782019150505050505091905050610400565b005b341561012857600080fd5b610178600480803590602001908201803590602001908080601f01602080910402602001604051908101604052809392919081815260200183838082843782019150505050505091905050610772565b604051808215151515815260200191505060405180910390f35b341561019d57600080fd5b6101a561088f565b6040518082815260200191505060405180910390f35b34156101c657600080fd5b61028c600480803590602001908201803590602001908080601f0160208091040260200160405190810160405280939291908181526020018383808284378201915050505050509190803573ffffffffffffffffffffffffffffffffffffffff1690602001909190803590602001908201803590602001908080601f0160208091040260200160405190810160405280939291908181526020018383808284378201915050505050509190803590602001909190803515159060200190919050506108db565b005b341561029957600080fd5b6102af6004808035906020019091905050610e15565b6040518080602001828103825283818151815260200191508051906020019080838360005b838110156102ef5780820151818401526020810190506102d4565b50505050905090810190601f16801561031c5780820380516001836020036101000a031916815260200191505b509250505060405180910390f35b341561033557600080fd5b610385600480803590602001908201803590602001908080601f01602080910402602001604051908101604052809392919081815260200183838082843782019150505050505091905050610f1a565b6040518080602001828103825283818151815260200191508051906020019080838360005b838110156103c55780820151818401526020810190506103aa565b50505050905090810190601f1680156103f25780820380516001836020036101000a031916815260200191505b509250505060405180910390f35b6000803391506000808373ffffffffffffffffffffffffffffffffffffffff1673ffffffffffffffffffffffffffffffffffffffff1681526020019081526020016000209050600015158160000160009054906101000a900460ff161515141561055d5760018160000160006101000a81548160ff021916908315150217905550606060405190810160405280600115158152602001848152602001600381525081600101856040518082805190602001908083835b6020831015156104db57805182526020820191506020810190506020830392506104b6565b6001836020036101000a038019825116818451168082178552505050505050905001915050908152602001604051809103902060008201518160000160006101000a81548160ff021916908315150217905550602082015181600101908051906020019061054a929190611075565b5060408201518160020155905050610635565b606060405190810160405280600115158152602001848152602001600381525081600101856040518082805190602001908083835b6020831015156105b75780518252602082019150602081019050602083039250610592565b6001836020036101000a038019825116818451168082178552505050505050905001915050908152602001604051809103902060008201518160000160006101000a81548160ff0219169083151502179055506020820151816001019080519060200190610626929190611075565b50604082015181600201559050505b806000808473ffffffffffffffffffffffffffffffffffffffff1673ffffffffffffffffffffffffffffffffffffffff1681526020019081526020016000206000820160009054906101000a900460ff168160000160006101000a81548160ff021916908315150217905550905050600160008373ffffffffffffffffffffffffffffffffffffffff1673ffffffffffffffffffffffffffffffffffffffff16815260200190815260200160002080548060010182816106f591906110f5565b91600052602060002090016000869091909150908051906020019061071b929190611121565b5050600260008373ffffffffffffffffffffffffffffffffffffffff1673ffffffffffffffffffffffffffffffffffffffff1681526020019081526020016000206000815480929190600101919050555050505050565b6000806000803392506000808473ffffffffffffffffffffffffffffffffffffffff1673ffffffffffffffffffffffffffffffffffffffff1681526020019081526020016000209150600115158260000160009054906101000a900460ff16151514156108825781600101856040518082805190602001908083835b60208310151561081357805182526020820191506020810190506020830392506107ee565b6001836020036101000a03801982511681845116808217855250505050505090500191505090815260200160405180910390209050600115158160000160009054906101000a900460ff161515141561088157600060018260020154161415156108805760019350610887565b5b5b600093505b505050919050565b600080339050600260008273ffffffffffffffffffffffffffffffffffffffff1673ffffffffffffffffffffffffffffffffffffffff1681526020019081526020016000205491505090565b60008060003392506000808473ffffffffffffffffffffffffffffffffffffffff1673ffffffffffffffffffffffffffffffffffffffff1681526020019081526020016000209150600115158260000160009054906101000a900460ff1615151415610e0b5781600101886040518082805190602001908083835b60208310151561097b5780518252602082019150602081019050602083039250610956565b6001836020036101000a03801982511681845116808217855250505050505090500191505090815260200160405180910390209050600115158160000160009054906101000a900460ff1615151415610e0a5760006002826002015416141515610e09576000808873ffffffffffffffffffffffffffffffffffffffff1673ffffffffffffffffffffffffffffffffffffffff1681526020019081526020016000209150600015158260000160009054906101000a900460ff1615151415610b355760018260000160006101000a81548160ff0219169083151502179055506060604051908101604052806001151581526020018781526020018681525082600101896040518082805190602001908083835b602083101515610ab35780518252602082019150602081019050602083039250610a8e565b6001836020036101000a038019825116818451168082178552505050505050905001915050908152602001604051809103902060008201518160000160006101000a81548160ff0219169083151502179055506020820151816001019080519060200190610b22929190611075565b5060408201518160020155905050610d99565b81600101886040518082805190602001908083835b602083101515610b6f5780518252602082019150602081019050602083039250610b4a565b6001836020036101000a03801982511681845116808217855250505050505090500191505090815260200160405180910390209050600115158160000160009054906101000a900460ff1615151415610bf957600115158415151415610be357848160020154178160020181905550610bf4565b841981600201541681600201819055505b610d98565b6060604051908101604052806001151581526020018781526020018681525082600101896040518082805190602001908083835b602083101515610c525780518252602082019150602081019050602083039250610c2d565b6001836020036101000a038019825116818451168082178552505050505050905001915050908152602001604051809103902060008201518160000160006101000a81548160ff0219169083151502179055506020820151816001019080519060200190610cc1929190611075565b5060408201518160020155905050600160008873ffffffffffffffffffffffffffffffffffffffff1673ffffffffffffffffffffffffffffffffffffffff1681526020019081526020016000208054806001018281610d2091906110f5565b916000526020600020900160008a90919091509080519060200190610d46929190611121565b5050600260008873ffffffffffffffffffffffffffffffffffffffff1673ffffffffffffffffffffffffffffffffffffffff168152602001908152602001600020600081548092919060010191905055505b5b816000808973ffffffffffffffffffffffffffffffffffffffff1673ffffffffffffffffffffffffffffffffffffffff1681526020019081526020016000206000820160009054906101000a900460ff168160000160006101000a81548160ff0219169083151502179055509050505b5b5b5050505050505050565b610e1d6111a1565b6000339050600160008273ffffffffffffffffffffffffffffffffffffffff1673ffffffffffffffffffffffffffffffffffffffff16815260200190815260200160002083815481101515610e6e57fe5b90600052602060002090018054600181600116156101000203166002900480601f016020809104026020016040519081016040528092919081815260200182805460018160011615610100020316600290048015610f0d5780601f10610ee257610100808354040283529160200191610f0d565b820191906000526020600020905b815481529060010190602001808311610ef057829003601f168201915b5050505050915050919050565b610f226111a1565b60003390506000808273ffffffffffffffffffffffffffffffffffffffff1673ffffffffffffffffffffffffffffffffffffffff168152602001908152602001600020600101836040518082805190602001908083835b602083101515610f9e5780518252602082019150602081019050602083039250610f79565b6001836020036101000a03801982511681845116808217855250505050505090500191505090815260200160405180910390206001018054600181600116156101000203166002900480601f0160208091040260200160405190810160405280929190818152602001828054600181600116156101000203166002900480156110685780601f1061103d57610100808354040283529160200191611068565b820191906000526020600020905b81548152906001019060200180831161104b57829003601f168201915b5050505050915050919050565b828054600181600116156101000203166002900490600052602060002090601f016020900481019282601f106110b657805160ff19168380011785556110e4565b828001600101855582156110e4579182015b828111156110e35782518255916020019190600101906110c8565b5b5090506110f191906111b5565b5090565b81548183558181151161111c5781836000526020600020918201910161111b91906111da565b5b505050565b828054600181600116156101000203166002900490600052602060002090601f016020900481019282601f1061116257805160ff1916838001178555611190565b82800160010185558215611190579182015b8281111561118f578251825591602001919060010190611174565b5b50905061119d91906111b5565b5090565b602060405190810160405280600081525090565b6111d791905b808211156111d35760008160009055506001016111bb565b5090565b90565b61120391905b808211156111ff57600081816111f69190611206565b506001016111e0565b5090565b90565b50805460018160011615610100020316600290046000825580601f1061122c575061124b565b601f01602090049060005260206000209081019061124a91906111b5565b5b505600a165627a7a72305820b0be62c3e20092eb95c7c1cc802c79bf1faeef2d1224038ba6b1d16138bb1a7a0029",
  "source": "pragma solidity ^0.4.2;\r\n\r\ncontract AccessControlManager\r\n{\r\n  struct AccessInfo\r\n  {\r\n    bool present;\r\n    string token;\r\n    uint role; // <unused> grant | download\r\n  }\r\n\r\n  struct FileInfo\r\n  {\r\n    bool present;\r\n    mapping (string => AccessInfo) info;\r\n  }\r\n\r\n  mapping (address => FileInfo) private UserInfo;\r\n  mapping (address => string[]) private FileList;\r\n  mapping (address => uint) private FileCount;\r\n  \r\n  function UploadFile(string fileHash, string token) public\r\n  {\r\n    address userId = msg.sender;\r\n\r\n    FileInfo storage fileInfo = UserInfo[userId];\r\n    if (fileInfo.present == false)\r\n    {\r\n      fileInfo.present = true;\r\n      fileInfo.info[fileHash] = AccessInfo(true, token, 3);\r\n    }\r\n    else\r\n    {\r\n      fileInfo.info[fileHash] = AccessInfo(true, token, 3);\r\n    }\r\n\r\n    UserInfo[userId] = fileInfo;\r\n    FileList[userId].push(fileHash);\r\n    FileCount[userId]++;\r\n  }\r\n\r\n  function AmendAccess(string fileHash, address userId, string token, uint role, bool isGrant) public\r\n  {\r\n    address senderId = msg.sender;\r\n\r\n    FileInfo storage fileInfo = UserInfo[senderId];\r\n    if (fileInfo.present == true)\r\n    {\r\n      AccessInfo storage accessInfo = fileInfo.info[fileHash];\r\n      if (accessInfo.present == true)\r\n      {\r\n        if (accessInfo.role & 0x2 != 0)\r\n        {\r\n          fileInfo = UserInfo[userId];\r\n          if (fileInfo.present == false)\r\n          {\r\n            fileInfo.present = true;\r\n            fileInfo.info[fileHash] = AccessInfo(true, token, role);\r\n          }\r\n          else\r\n          {\r\n            accessInfo = fileInfo.info[fileHash];\r\n            if (accessInfo.present == true)\r\n            {\r\n              if (isGrant == true)\r\n              {\r\n                accessInfo.role = accessInfo.role | role;\r\n              }\r\n              else\r\n              {\r\n                accessInfo.role = accessInfo.role & ~role;\r\n              }\r\n            }\r\n            else\r\n            {\r\n              fileInfo.info[fileHash] = AccessInfo(true, token, role);\r\n              FileList[userId].push(fileHash);\r\n              FileCount[userId]++;\r\n            }\r\n          }\r\n\r\n          UserInfo[userId] = fileInfo;\r\n        }\r\n      }\r\n    }\r\n  }\r\n\r\n  function DownloadFile(string fileHash) public constant returns (bool)\r\n  {\r\n    address userId = msg.sender;\r\n\r\n    FileInfo storage fileInfo = UserInfo[userId];\r\n    if (fileInfo.present == true)\r\n    {\r\n      AccessInfo storage accessInfo = fileInfo.info[fileHash];\r\n      if (accessInfo.present == true)\r\n      {\r\n        if (accessInfo.role & 0x1 != 0)\r\n        {\r\n          return true;\r\n        }\r\n      }\r\n    }\r\n\r\n    return false;\r\n  }\r\n\r\n  function GetFileCount() public constant returns (uint)\r\n  {\r\n    address userId = msg.sender;\r\n\r\n    return FileCount[userId];\r\n  }\r\n\r\n  function GetFileName(uint index) public constant returns (string)\r\n  {\r\n    address userId = msg.sender;\r\n\r\n    return FileList[userId][index];\r\n  }\r\n\r\n  function GetToken(string fileHash) public constant returns (string)\r\n  {\r\n    address userId = msg.sender;\r\n\r\n    return UserInfo[userId].info[fileHash].token;\r\n  }\r\n}\r\n",
  "sourcePath": "C:\\Users\\pra\\IdeaProjects\\Safeshare\\eureka\\src\\contracts\\AccessControlManager.sol",
  "compiler": {
    "name": "solc",
    "version": "0.4.19+commit.c4cbbb05.Emscripten.clang"
  },
  "schemaVersion": "2.0.0",
  "updatedAt": "2018-03-23T06:09:06.549Z"
}