{
  "contractName": "AccessControlManager",
  "abi": [
    {
      "constant": false,
      "inputs": [
        {
          "name": "fileHash",
          "type": "string"
        },
        {
          "name": "userId",
          "type": "string"
        },
        {
          "name": "token",
          "type": "string"
        },
        {
          "name": "role",
          "type": "uint256"
        },
        {
          "name": "signature",
          "type": "string"
        }
      ],
      "name": "UploadFile",
      "outputs": [],
      "payable": false,
      "stateMutability": "nonpayable",
      "type": "function"
    },
    {
      "constant": false,
      "inputs": [
        {
          "name": "fileHash",
          "type": "string"
        },
        {
          "name": "senderId",
          "type": "string"
        },
        {
          "name": "userId",
          "type": "string"
        },
        {
          "name": "token",
          "type": "string"
        },
        {
          "name": "role",
          "type": "uint256"
        },
        {
          "name": "isGrant",
          "type": "bool"
        },
        {
          "name": "signature",
          "type": "string"
        }
      ],
      "name": "AmendAccess",
      "outputs": [],
      "payable": false,
      "stateMutability": "nonpayable",
      "type": "function"
    },
    {
      "constant": true,
      "inputs": [
        {
          "name": "fileHash",
          "type": "string"
        },
        {
          "name": "userId",
          "type": "string"
        },
        {
          "name": "signature",
          "type": "string"
        }
      ],
      "name": "DownloadFile",
      "outputs": [
        {
          "name": "",
          "type": "bool"
        }
      ],
      "payable": false,
      "stateMutability": "view",
      "type": "function"
    },
    {
      "constant": true,
      "inputs": [
        {
          "name": "userId",
          "type": "string"
        },
        {
          "name": "signature",
          "type": "string"
        }
      ],
      "name": "GetFileCount",
      "outputs": [
        {
          "name": "",
          "type": "uint256"
        }
      ],
      "payable": false,
      "stateMutability": "view",
      "type": "function"
    },
    {
      "constant": true,
      "inputs": [
        {
          "name": "userId",
          "type": "string"
        },
        {
          "name": "index",
          "type": "uint256"
        },
        {
          "name": "signature",
          "type": "string"
        }
      ],
      "name": "GetFileName",
      "outputs": [
        {
          "name": "",
          "type": "string"
        }
      ],
      "payable": false,
      "stateMutability": "view",
      "type": "function"
    },
    {
      "constant": true,
      "inputs": [
        {
          "name": "fileHash",
          "type": "string"
        },
        {
          "name": "userId",
          "type": "string"
        },
        {
          "name": "signature",
          "type": "string"
        }
      ],
      "name": "GetToken",
      "outputs": [
        {
          "name": "",
          "type": "string"
        }
      ],
      "payable": false,
      "stateMutability": "view",
      "type": "function"
    }
  ],
  "bytecode": "0x6060604052341561000f57600080fd5b6117fc8061001e6000396000f300606060405260043610610078576000357c0100000000000000000000000000000000000000000000000000000000900463ffffffff168063145b920f1461007d57806329a5fd201461019f57806339e4ebc0146102fb5780634e45f0ec14610478578063770caa6114610573578063e2de794714610627575b600080fd5b341561008857600080fd5b610124600480803590602001908201803590602001908080601f0160208091040260200160405190810160405280939291908181526020018383808284378201915050505050509190803590602001909190803590602001908201803590602001908080601f01602080910402602001604051908101604052809392919081815260200183838082843782019150505050505091905050610756565b6040518080602001828103825283818151815260200191508051906020019080838360005b83811015610164578082015181840152602081019050610149565b50505050905090810190601f1680156101915780820380516001836020036101000a031916815260200191505b509250505060405180910390f35b34156101aa57600080fd5b610280600480803590602001908201803590602001908080601f0160208091040260200160405190810160405280939291908181526020018383808284378201915050505050509190803590602001908201803590602001908080601f0160208091040260200160405190810160405280939291908181526020018383808284378201915050505050509190803590602001908201803590602001908080601f01602080910402602001604051908101604052809392919081815260200183838082843782019150505050505091905050610883565b6040518080602001828103825283818151815260200191508051906020019080838360005b838110156102c05780820151818401526020810190506102a5565b50505050905090810190601f1680156102ed5780820380516001836020036101000a031916815260200191505b509250505060405180910390f35b341561030657600080fd5b610476600480803590602001908201803590602001908080601f0160208091040260200160405190810160405280939291908181526020018383808284378201915050505050509190803590602001908201803590602001908080601f0160208091040260200160405190810160405280939291908181526020018383808284378201915050505050509190803590602001908201803590602001908080601f0160208091040260200160405190810160405280939291908181526020018383808284378201915050505050509190803590602001908201803590602001908080601f01602080910402602001604051908101604052809392919081815260200183838082843782019150505050505091908035906020019091908035151590602001909190803590602001908201803590602001908080601f01602080910402602001604051908101604052809392919081815260200183838082843782019150505050505091905050610a07565b005b341561048357600080fd5b610559600480803590602001908201803590602001908080601f0160208091040260200160405190810160405280939291908181526020018383808284378201915050505050509190803590602001908201803590602001908080601f0160208091040260200160405190810160405280939291908181526020018383808284378201915050505050509190803590602001908201803590602001908080601f0160208091040260200160405190810160405280939291908181526020018383808284378201915050505050509190505061101c565b604051808215151515815260200191505060405180910390f35b341561057e57600080fd5b610611600480803590602001908201803590602001908080601f0160208091040260200160405190810160405280939291908181526020018383808284378201915050505050509190803590602001908201803590602001908080601f01602080910402602001604051908101604052809392919081815260200183838082843782019150505050505091905050611162565b6040518082815260200191505060405180910390f35b341561063257600080fd5b610754600480803590602001908201803590602001908080601f0160208091040260200160405190810160405280939291908181526020018383808284378201915050505050509190803590602001908201803590602001908080601f0160208091040260200160405190810160405280939291908181526020018383808284378201915050505050509190803590602001908201803590602001908080601f0160208091040260200160405190810160405280939291908181526020018383808284378201915050505050509190803590602001909190803590602001908201803590602001908080601f016020809104026020016040519081016040528093929190818152602001838380828437820191505050505050919050506111d8565b005b61075e6115f7565b6001846040518082805190602001908083835b6020831015156107965780518252602082019150602081019050602083039250610771565b6001836020036101000a0380198251168184511680821785525050505050509050019150509081526020016040518091039020838154811015156107d657fe5b90600052602060002090018054600181600116156101000203166002900480601f0160208091040260200160405190810160405280929190818152602001828054600181600116156101000203166002900480156108755780601f1061084a57610100808354040283529160200191610875565b820191906000526020600020905b81548152906001019060200180831161085857829003601f168201915b505050505090509392505050565b61088b6115f7565b6000836040518082805190602001908083835b6020831015156108c3578051825260208201915060208101905060208303925061089e565b6001836020036101000a0380198251168184511680821785525050505050509050019150509081526020016040518091039020600101846040518082805190602001908083835b60208310151561092f578051825260208201915060208101905060208303925061090a565b6001836020036101000a03801982511681845116808217855250505050505090500191505090815260200160405180910390206001018054600181600116156101000203166002900480601f0160208091040260200160405190810160405280929190818152602001828054600181600116156101000203166002900480156109f95780601f106109ce576101008083540402835291602001916109f9565b820191906000526020600020905b8154815290600101906020018083116109dc57829003601f168201915b505050505090509392505050565b6000806000886040518082805190602001908083835b602083101515610a425780518252602082019150602081019050602083039250610a1d565b6001836020036101000a03801982511681845116808217855250505050505090500191505090815260200160405180910390209150600115158260000160009054906101000a900460ff16151514156110115781600101896040518082805190602001908083835b602083101515610acf5780518252602082019150602081019050602083039250610aaa565b6001836020036101000a03801982511681845116808217855250505050505090500191505090815260200160405180910390209050600115158160000160009054906101000a900460ff1615151415611010576000600282600201541614151561100f576000876040518082805190602001908083835b602083101515610b6b5780518252602082019150602081019050602083039250610b46565b6001836020036101000a03801982511681845116808217855250505050505090500191505090815260200160405180910390209150600015158260000160009054906101000a900460ff1615151415610cb65760018260000160006101000a81548160ff02191690831515021790555060606040519081016040528060011515815260200187815260200186815250826001018a6040518082805190602001908083835b602083101515610c345780518252602082019150602081019050602083039250610c0f565b6001836020036101000a038019825116818451168082178552505050505050905001915050908152602001604051809103902060008201518160000160006101000a81548160ff0219169083151502179055506020820151816001019080519060200190610ca392919061160b565b5060408201518160020155905050610f72565b81600101896040518082805190602001908083835b602083101515610cf05780518252602082019150602081019050602083039250610ccb565b6001836020036101000a03801982511681845116808217855250505050505090500191505090815260200160405180910390209050600115158160000160009054906101000a900460ff1615151415610d7a57600115158415151415610d6457848160020154178160020181905550610d75565b841981600201541681600201819055505b610f71565b60606040519081016040528060011515815260200187815260200186815250826001018a6040518082805190602001908083835b602083101515610dd35780518252602082019150602081019050602083039250610dae565b6001836020036101000a038019825116818451168082178552505050505050905001915050908152602001604051809103902060008201518160000160006101000a81548160ff0219169083151502179055506020820151816001019080519060200190610e4292919061160b565b50604082015181600201559050506001876040518082805190602001908083835b602083101515610e885780518252602082019150602081019050602083039250610e63565b6001836020036101000a03801982511681845116808217855250505050505090500191505090815260200160405180910390208054806001018281610ecd919061168b565b916000526020600020900160008b90919091509080519060200190610ef39291906116b7565b50506002876040518082805190602001908083835b602083101515610f2d5780518252602082019150602081019050602083039250610f08565b6001836020036101000a0380198251168184511680821785525050505050509050019150509081526020016040518091039020600081548092919060010191905055505b5b816000886040518082805190602001908083835b602083101515610fab5780518252602082019150602081019050602083039250610f86565b6001836020036101000a03801982511681845116808217855250505050505090500191505090815260200160405180910390206000820160009054906101000a900460ff168160000160006101000a81548160ff0219169083151502179055509050505b5b5b505050505050505050565b600080600080856040518082805190602001908083835b6020831015156110585780518252602082019150602081019050602083039250611033565b6001836020036101000a03801982511681845116808217855250505050505090500191505090815260200160405180910390209150600115158260000160009054906101000a900460ff16151514156111545781600101866040518082805190602001908083835b6020831015156110e557805182526020820191506020810190506020830392506110c0565b6001836020036101000a03801982511681845116808217855250505050505090500191505090815260200160405180910390209050600115158160000160009054906101000a900460ff161515141561115357600060018260020154161415156111525760019250611159565b5b5b600092505b50509392505050565b60006002836040518082805190602001908083835b60208310151561119c5780518252602082019150602081019050602083039250611177565b6001836020036101000a038019825116818451168082178552505050505050905001915050908152602001604051809103902054905092915050565b600080856040518082805190602001908083835b60208310151561121157805182526020820191506020810190506020830392506111ec565b6001836020036101000a03801982511681845116808217855250505050505090500191505090815260200160405180910390209050600015158160000160009054906101000a900460ff161515141561135c5760018160000160006101000a81548160ff0219169083151502179055506060604051908101604052806001151581526020018581526020018481525081600101876040518082805190602001908083835b6020831015156112da57805182526020820191506020810190506020830392506112b5565b6001836020036101000a038019825116818451168082178552505050505050905001915050908152602001604051809103902060008201518160000160006101000a81548160ff021916908315150217905550602082015181600101908051906020019061134992919061160b565b5060408201518160020155905050611433565b6060604051908101604052806001151581526020018581526020018481525081600101876040518082805190602001908083835b6020831015156113b55780518252602082019150602081019050602083039250611390565b6001836020036101000a038019825116818451168082178552505050505050905001915050908152602001604051809103902060008201518160000160006101000a81548160ff021916908315150217905550602082015181600101908051906020019061142492919061160b565b50604082015181600201559050505b806000866040518082805190602001908083835b60208310151561146c5780518252602082019150602081019050602083039250611447565b6001836020036101000a03801982511681845116808217855250505050505090500191505090815260200160405180910390206000820160009054906101000a900460ff168160000160006101000a81548160ff0219169083151502179055509050506001856040518082805190602001908083835b60208310151561150757805182526020820191506020810190506020830392506114e2565b6001836020036101000a0380198251168184511680821785525050505050509050019150509081526020016040518091039020805480600101828161154c919061168b565b9160005260206000209001600088909190915090805190602001906115729291906116b7565b50506002856040518082805190602001908083835b6020831015156115ac5780518252602082019150602081019050602083039250611587565b6001836020036101000a038019825116818451168082178552505050505050905001915050908152602001604051809103902060008154809291906001019190505550505050505050565b602060405190810160405280600081525090565b828054600181600116156101000203166002900490600052602060002090601f016020900481019282601f1061164c57805160ff191683800117855561167a565b8280016001018555821561167a579182015b8281111561167957825182559160200191906001019061165e565b5b5090506116879190611737565b5090565b8154818355818115116116b2578183600052602060002091820191016116b1919061175c565b5b505050565b828054600181600116156101000203166002900490600052602060002090601f016020900481019282601f106116f857805160ff1916838001178555611726565b82800160010185558215611726579182015b8281111561172557825182559160200191906001019061170a565b5b5090506117339190611737565b5090565b61175991905b8082111561175557600081600090555060010161173d565b5090565b90565b61178591905b8082111561178157600081816117789190611788565b50600101611762565b5090565b90565b50805460018160011615610100020316600290046000825580601f106117ae57506117cd565b601f0160209004906000526020600020908101906117cc9190611737565b5b505600a165627a7a723058200166bf6a0ec9515f8d08e4cd8d876784a62a3d30bef0fac423247bfeb4720c240029",
  "source": "pragma solidity ^0.4.2;\r\n\r\ncontract AccessControlManager\r\n{\r\n  struct AccessInfo\r\n  {\r\n    bool present;\r\n    string token;\r\n    uint role; // <unused> grant | download\r\n  }\r\n\r\n  struct FileInfo\r\n  {\r\n    bool present;\r\n    mapping (string => AccessInfo) info;\r\n  }\r\n\r\n  mapping (string => FileInfo) private UserInfo;\r\n  mapping (string => string[]) private FileList;\r\n  mapping (string => uint) private FileCount;\r\n  \r\n  function UploadFile(string fileHash, string userId, string token, uint role, string signature) public\r\n  {\r\n    // Check signature\r\n\r\n    FileInfo storage fileInfo = UserInfo[userId];\r\n    if (fileInfo.present == false)\r\n    {\r\n      fileInfo.present = true;\r\n      fileInfo.info[fileHash] = AccessInfo(true, token, role);\r\n    }\r\n    else\r\n    {\r\n      fileInfo.info[fileHash] = AccessInfo(true, token, role);\r\n    }\r\n\r\n    UserInfo[userId] = fileInfo;\r\n    FileList[userId].push(fileHash);\r\n    FileCount[userId]++;\r\n  }\r\n\r\n  function AmendAccess(string fileHash, string senderId, string userId, string token, uint role, bool isGrant, string signature) public\r\n  {\r\n    // Check signature\r\n\r\n    FileInfo storage fileInfo = UserInfo[senderId];\r\n    if (fileInfo.present == true)\r\n    {\r\n      AccessInfo storage accessInfo = fileInfo.info[fileHash];\r\n      if (accessInfo.present == true)\r\n      {\r\n        if (accessInfo.role & 0x2 != 0)\r\n        {\r\n          fileInfo = UserInfo[userId];\r\n          if (fileInfo.present == false)\r\n          {\r\n            fileInfo.present = true;\r\n            fileInfo.info[fileHash] = AccessInfo(true, token, role);\r\n          }\r\n          else\r\n          {\r\n            accessInfo = fileInfo.info[fileHash];\r\n            if (accessInfo.present == true)\r\n            {\r\n              if (isGrant == true)\r\n              {\r\n                accessInfo.role = accessInfo.role | role;\r\n              }\r\n              else\r\n              {\r\n                accessInfo.role = accessInfo.role & ~role;\r\n              }\r\n            }\r\n            else\r\n            {\r\n              fileInfo.info[fileHash] = AccessInfo(true, token, role);\r\n              FileList[userId].push(fileHash);\r\n              FileCount[userId]++;\r\n            }\r\n          }\r\n\r\n          UserInfo[userId] = fileInfo;\r\n        }\r\n      }\r\n    }\r\n  }\r\n\r\n  function DownloadFile(string fileHash, string userId, string signature) public constant returns (bool)\r\n  {\r\n    // Check signature\r\n\r\n    FileInfo storage fileInfo = UserInfo[userId];\r\n    if (fileInfo.present == true)\r\n    {\r\n      AccessInfo storage accessInfo = fileInfo.info[fileHash];\r\n      if (accessInfo.present == true)\r\n      {\r\n        if (accessInfo.role & 0x1 != 0)\r\n        {\r\n          return true;\r\n        }\r\n      }\r\n    }\r\n\r\n    return false;\r\n  }\r\n\r\n  function GetFileCount(string userId, string signature) public constant returns (uint)\r\n  {\r\n    // Check signature\r\n\r\n    return FileCount[userId];\r\n  }\r\n\r\n  function GetFileName(string userId, uint index, string signature) public constant returns (string)\r\n  {\r\n    // Check signature\r\n\r\n    return FileList[userId][index];\r\n  }\r\n\r\n  function GetToken(string fileHash, string userId, string signature) public constant returns (string)\r\n  {\r\n    // Check signature\r\n\r\n    return UserInfo[userId].info[fileHash].token;\r\n  }\r\n}\r\n",
  "sourcePath": "C:\\Users\\pra\\IdeaProjects\\Safeshare\\eureka\\src\\contracts\\AccessControlManager.sol",
  "compiler": {
    "name": "solc",
    "version": "0.4.19+commit.c4cbbb05.Emscripten.clang"
  },
  "schemaVersion": "2.0.0",
  "updatedAt": "2018-03-23T00:27:44.873Z"
}