{
  "contractName": "AccessControlManager",
  "abi": [
    {
      "constant": false,
      "inputs": [
        {
          "name": "fileHash",
          "type": "string"
        },
        {
          "name": "token",
          "type": "string"
        },
        {
          "name": "data",
          "type": "bytes32"
        },
        {
          "name": "v",
          "type": "uint8"
        },
        {
          "name": "r",
          "type": "bytes32"
        },
        {
          "name": "s",
          "type": "bytes32"
        }
      ],
      "name": "UploadFile",
      "outputs": [],
      "payable": false,
      "stateMutability": "nonpayable",
      "type": "function"
    },
    {
      "constant": false,
      "inputs": [
        {
          "name": "fileHash",
          "type": "string"
        },
        {
          "name": "userId",
          "type": "address"
        },
        {
          "name": "token",
          "type": "string"
        },
        {
          "name": "role",
          "type": "uint256"
        },
        {
          "name": "isGrant",
          "type": "bool"
        },
        {
          "name": "data",
          "type": "bytes32"
        },
        {
          "name": "v",
          "type": "uint8"
        },
        {
          "name": "r",
          "type": "bytes32"
        },
        {
          "name": "s",
          "type": "bytes32"
        }
      ],
      "name": "AmendAccess",
      "outputs": [],
      "payable": false,
      "stateMutability": "nonpayable",
      "type": "function"
    },
    {
      "constant": true,
      "inputs": [
        {
          "name": "fileHash",
          "type": "string"
        },
        {
          "name": "data",
          "type": "bytes32"
        },
        {
          "name": "v",
          "type": "uint8"
        },
        {
          "name": "r",
          "type": "bytes32"
        },
        {
          "name": "s",
          "type": "bytes32"
        }
      ],
      "name": "DownloadFile",
      "outputs": [
        {
          "name": "",
          "type": "bool"
        }
      ],
      "payable": false,
      "stateMutability": "view",
      "type": "function"
    },
    {
      "constant": true,
      "inputs": [
        {
          "name": "data",
          "type": "bytes32"
        },
        {
          "name": "v",
          "type": "uint8"
        },
        {
          "name": "r",
          "type": "bytes32"
        },
        {
          "name": "s",
          "type": "bytes32"
        }
      ],
      "name": "GetFileCount",
      "outputs": [
        {
          "name": "",
          "type": "uint256"
        }
      ],
      "payable": false,
      "stateMutability": "view",
      "type": "function"
    },
    {
      "constant": true,
      "inputs": [
        {
          "name": "index",
          "type": "uint256"
        },
        {
          "name": "data",
          "type": "bytes32"
        },
        {
          "name": "v",
          "type": "uint8"
        },
        {
          "name": "r",
          "type": "bytes32"
        },
        {
          "name": "s",
          "type": "bytes32"
        }
      ],
      "name": "GetFileName",
      "outputs": [
        {
          "name": "",
          "type": "string"
        }
      ],
      "payable": false,
      "stateMutability": "view",
      "type": "function"
    },
    {
      "constant": true,
      "inputs": [
        {
          "name": "fileHash",
          "type": "string"
        },
        {
          "name": "data",
          "type": "bytes32"
        },
        {
          "name": "v",
          "type": "uint8"
        },
        {
          "name": "r",
          "type": "bytes32"
        },
        {
          "name": "s",
          "type": "bytes32"
        }
      ],
      "name": "GetToken",
      "outputs": [
        {
          "name": "",
          "type": "string"
        }
      ],
      "payable": false,
      "stateMutability": "view",
      "type": "function"
    }
  ],
  "bytecode": "0x6060604052341561000f57600080fd5b61184f8061001e6000396000f300606060405260043610610078576000357c0100000000000000000000000000000000000000000000000000000000900463ffffffff1680631e731d7b1461007d57806352202e64146100de57806358a32656146101b1578063abc5ea3a146102b7578063f12af67a14610386578063fea62d7c1461048f575b600080fd5b341561008857600080fd5b6100c860048080356000191690602001909190803560ff169060200190919080356000191690602001909190803560001916906020019091905050610537565b6040518082815260200191505060405180910390f35b34156100e957600080fd5b6101af600480803590602001908201803590602001908080601f0160208091040260200160405190810160405280939291908181526020018383808284378201915050505050509190803590602001908201803590602001908080601f016020809104026020016040519081016040528093929190818152602001838380828437820191505050505050919080356000191690602001909190803560ff169060200190919080356000191690602001909190803560001916906020019091905050610649565b005b34156101bc57600080fd5b6102b5600480803590602001908201803590602001908080601f0160208091040260200160405190810160405280939291908181526020018383808284378201915050505050509190803573ffffffffffffffffffffffffffffffffffffffff1690602001909190803590602001908201803590602001908080601f0160208091040260200160405190810160405280939291908181526020018383808284378201915050505050509190803590602001909190803515159060200190919080356000191690602001909190803560ff169060200190919080356000191690602001909190803560001916906020019091905050610a80565b005b34156102c257600080fd5b61030b60048080359060200190919080356000191690602001909190803560ff16906020019091908035600019169060200190919080356000191690602001909190505061107f565b6040518080602001828103825283818151815260200191508051906020019080838360005b8381101561034b578082015181840152602081019050610330565b50505050905090810190601f1680156103785780820380516001836020036101000a031916815260200191505b509250505060405180910390f35b341561039157600080fd5b610414600480803590602001908201803590602001908080601f016020809104026020016040519081016040528093929190818152602001838380828437820191505050505050919080356000191690602001909190803560ff169060200190919080356000191690602001909190803560001916906020019091905050611249565b6040518080602001828103825283818151815260200191508051906020019080838360005b83811015610454578082015181840152602081019050610439565b50505050905090810190601f1680156104815780820380516001836020036101000a031916815260200191505b509250505060405180910390f35b341561049a57600080fd5b61051d600480803590602001908201803590602001908080601f016020809104026020016040519081016040528093929190818152602001838380828437820191505050505050919080356000191690602001909190803560ff169060200190919080356000191690602001909190803560001916906020019091905050611469565b604051808215151515815260200191505060405180910390f35b6000803390508073ffffffffffffffffffffffffffffffffffffffff16600187878787604051600081526020016040526000604051602001526040518085600019166000191681526020018460ff1660ff16815260200183600019166000191681526020018260001916600019168152602001945050505050602060405160208103908084039060008661646e5a03f115156105d257600080fd5b50506020604051035173ffffffffffffffffffffffffffffffffffffffff161415156105fd57610640565b600260008273ffffffffffffffffffffffffffffffffffffffff1673ffffffffffffffffffffffffffffffffffffffff1681526020019081526020016000205491505b50949350505050565b6000803391508173ffffffffffffffffffffffffffffffffffffffff16600187878787604051600081526020016040526000604051602001526040518085600019166000191681526020018460ff1660ff16815260200183600019166000191681526020018260001916600019168152602001945050505050602060405160208103908084039060008661646e5a03f115156106e457600080fd5b50506020604051035173ffffffffffffffffffffffffffffffffffffffff1614151561070f57610a76565b6000808373ffffffffffffffffffffffffffffffffffffffff1673ffffffffffffffffffffffffffffffffffffffff1681526020019081526020016000209050600015158160000160009054906101000a900460ff16151514156108665760018160000160006101000a81548160ff021916908315150217905550606060405190810160405280600115158152602001888152602001600381525081600101896040518082805190602001908083835b6020831015156107e457805182526020820191506020810190506020830392506107bf565b6001836020036101000a038019825116818451168082178552505050505050905001915050908152602001604051809103902060008201518160000160006101000a81548160ff021916908315150217905550602082015181600101908051906020019061085392919061164a565b506040820151816002015590505061093e565b606060405190810160405280600115158152602001888152602001600381525081600101896040518082805190602001908083835b6020831015156108c0578051825260208201915060208101905060208303925061089b565b6001836020036101000a038019825116818451168082178552505050505050905001915050908152602001604051809103902060008201518160000160006101000a81548160ff021916908315150217905550602082015181600101908051906020019061092f92919061164a565b50604082015181600201559050505b806000808473ffffffffffffffffffffffffffffffffffffffff1673ffffffffffffffffffffffffffffffffffffffff1681526020019081526020016000206000820160009054906101000a900460ff168160000160006101000a81548160ff021916908315150217905550905050600160008373ffffffffffffffffffffffffffffffffffffffff1673ffffffffffffffffffffffffffffffffffffffff16815260200190815260200160002080548060010182816109fe91906116ca565b916000526020600020900160008a90919091509080519060200190610a249291906116f6565b5050600260008373ffffffffffffffffffffffffffffffffffffffff1673ffffffffffffffffffffffffffffffffffffffff168152602001908152602001600020600081548092919060010191905055505b5050505050505050565b60008060003392508273ffffffffffffffffffffffffffffffffffffffff16600188888888604051600081526020016040526000604051602001526040518085600019166000191681526020018460ff1660ff16815260200183600019166000191681526020018260001916600019168152602001945050505050602060405160208103908084039060008661646e5a03f11515610b1d57600080fd5b50506020604051035173ffffffffffffffffffffffffffffffffffffffff16141515610b4857611071565b6000808473ffffffffffffffffffffffffffffffffffffffff1673ffffffffffffffffffffffffffffffffffffffff1681526020019081526020016000209150600115158260000160009054906101000a900460ff161515141561107057816001018c6040518082805190602001908083835b602083101515610be05780518252602082019150602081019050602083039250610bbb565b6001836020036101000a03801982511681845116808217855250505050505090500191505090815260200160405180910390209050600115158160000160009054906101000a900460ff161515141561106f576000600282600201541614151561106e576000808c73ffffffffffffffffffffffffffffffffffffffff1673ffffffffffffffffffffffffffffffffffffffff1681526020019081526020016000209150600015158260000160009054906101000a900460ff1615151415610d9a5760018260000160006101000a81548160ff0219169083151502179055506060604051908101604052806001151581526020018b81526020018a815250826001018d6040518082805190602001908083835b602083101515610d185780518252602082019150602081019050602083039250610cf3565b6001836020036101000a038019825116818451168082178552505050505050905001915050908152602001604051809103902060008201518160000160006101000a81548160ff0219169083151502179055506020820151816001019080519060200190610d8792919061164a565b5060408201518160020155905050610ffe565b816001018c6040518082805190602001908083835b602083101515610dd45780518252602082019150602081019050602083039250610daf565b6001836020036101000a03801982511681845116808217855250505050505090500191505090815260200160405180910390209050600115158160000160009054906101000a900460ff1615151415610e5e57600115158815151415610e4857888160020154178160020181905550610e59565b881981600201541681600201819055505b610ffd565b6060604051908101604052806001151581526020018b81526020018a815250826001018d6040518082805190602001908083835b602083101515610eb75780518252602082019150602081019050602083039250610e92565b6001836020036101000a038019825116818451168082178552505050505050905001915050908152602001604051809103902060008201518160000160006101000a81548160ff0219169083151502179055506020820151816001019080519060200190610f2692919061164a565b5060408201518160020155905050600160008c73ffffffffffffffffffffffffffffffffffffffff1673ffffffffffffffffffffffffffffffffffffffff1681526020019081526020016000208054806001018281610f8591906116ca565b916000526020600020900160008e90919091509080519060200190610fab9291906116f6565b5050600260008c73ffffffffffffffffffffffffffffffffffffffff1673ffffffffffffffffffffffffffffffffffffffff168152602001908152602001600020600081548092919060010191905055505b5b816000808d73ffffffffffffffffffffffffffffffffffffffff1673ffffffffffffffffffffffffffffffffffffffff1681526020019081526020016000206000820160009054906101000a900460ff168160000160006101000a81548160ff0219169083151502179055509050505b5b5b5b505050505050505050505050565b611087611776565b60003390508073ffffffffffffffffffffffffffffffffffffffff16600187878787604051600081526020016040526000604051602001526040518085600019166000191681526020018460ff1660ff16815260200183600019166000191681526020018260001916600019168152602001945050505050602060405160208103908084039060008661646e5a03f1151561112157600080fd5b50506020604051035173ffffffffffffffffffffffffffffffffffffffff1614151561114c5761123f565b600160008273ffffffffffffffffffffffffffffffffffffffff1673ffffffffffffffffffffffffffffffffffffffff1681526020019081526020016000208781548110151561119857fe5b90600052602060002090018054600181600116156101000203166002900480601f0160208091040260200160405190810160405280929190818152602001828054600181600116156101000203166002900480156112375780601f1061120c57610100808354040283529160200191611237565b820191906000526020600020905b81548152906001019060200180831161121a57829003601f168201915b505050505091505b5095945050505050565b611251611776565b60003390508073ffffffffffffffffffffffffffffffffffffffff16600187878787604051600081526020016040526000604051602001526040518085600019166000191681526020018460ff1660ff16815260200183600019166000191681526020018260001916600019168152602001945050505050602060405160208103908084039060008661646e5a03f115156112eb57600080fd5b50506020604051035173ffffffffffffffffffffffffffffffffffffffff161415156113165761145f565b6000808273ffffffffffffffffffffffffffffffffffffffff1673ffffffffffffffffffffffffffffffffffffffff168152602001908152602001600020600101876040518082805190602001908083835b60208310151561138d5780518252602082019150602081019050602083039250611368565b6001836020036101000a03801982511681845116808217855250505050505090500191505090815260200160405180910390206001018054600181600116156101000203166002900480601f0160208091040260200160405190810160405280929190818152602001828054600181600116156101000203166002900480156114575780601f1061142c57610100808354040283529160200191611457565b820191906000526020600020905b81548152906001019060200180831161143a57829003601f168201915b505050505091505b5095945050505050565b6000806000803392508273ffffffffffffffffffffffffffffffffffffffff16600189898989604051600081526020016040526000604051602001526040518085600019166000191681526020018460ff1660ff16815260200183600019166000191681526020018260001916600019168152602001945050505050602060405160208103908084039060008661646e5a03f1151561150757600080fd5b50506020604051035173ffffffffffffffffffffffffffffffffffffffff161415156115325761163e565b6000808473ffffffffffffffffffffffffffffffffffffffff1673ffffffffffffffffffffffffffffffffffffffff1681526020019081526020016000209150600115158260000160009054906101000a900460ff16151514156116395781600101896040518082805190602001908083835b6020831015156115ca57805182526020820191506020810190506020830392506115a5565b6001836020036101000a03801982511681845116808217855250505050505090500191505090815260200160405180910390209050600115158160000160009054906101000a900460ff16151514156116385760006001826002015416141515611637576001935061163e565b5b5b600093505b50505095945050505050565b828054600181600116156101000203166002900490600052602060002090601f016020900481019282601f1061168b57805160ff19168380011785556116b9565b828001600101855582156116b9579182015b828111156116b857825182559160200191906001019061169d565b5b5090506116c6919061178a565b5090565b8154818355818115116116f1578183600052602060002091820191016116f091906117af565b5b505050565b828054600181600116156101000203166002900490600052602060002090601f016020900481019282601f1061173757805160ff1916838001178555611765565b82800160010185558215611765579182015b82811115611764578251825591602001919060010190611749565b5b509050611772919061178a565b5090565b602060405190810160405280600081525090565b6117ac91905b808211156117a8576000816000905550600101611790565b5090565b90565b6117d891905b808211156117d457600081816117cb91906117db565b506001016117b5565b5090565b90565b50805460018160011615610100020316600290046000825580601f106118015750611820565b601f01602090049060005260206000209081019061181f919061178a565b5b505600a165627a7a723058208f88798ec24804f04005a809ed4ff8e8faff6ea38fb5122cd0f2ae8bbfa13c1c0029",
  "source": "pragma solidity ^0.4.2;\r\n\r\ncontract AccessControlManager\r\n{\r\n  struct AccessInfo\r\n  {\r\n    bool present;\r\n    string token;\r\n    uint role; // <unused> grant | download\r\n  }\r\n\r\n  struct FileInfo\r\n  {\r\n    bool present;\r\n    mapping (string => AccessInfo) info;\r\n  }\r\n\r\n  mapping (address => FileInfo) private UserInfo;\r\n  mapping (address => string[]) private FileList;\r\n  mapping (address => uint) private FileCount;\r\n  \r\n  function UploadFile(string fileHash, string token, bytes32 data, uint8 v, bytes32 r, bytes32 s) public\r\n  {\r\n    address userId = msg.sender;\r\n    if (ecrecover(data, v, r, s) != userId)\r\n    {\r\n      return;\r\n    }\r\n\r\n    FileInfo storage fileInfo = UserInfo[userId];\r\n    if (fileInfo.present == false)\r\n    {\r\n      fileInfo.present = true;\r\n      fileInfo.info[fileHash] = AccessInfo(true, token, 3);\r\n    }\r\n    else\r\n    {\r\n      fileInfo.info[fileHash] = AccessInfo(true, token, 3);\r\n    }\r\n\r\n    UserInfo[userId] = fileInfo;\r\n    FileList[userId].push(fileHash);\r\n    FileCount[userId]++;\r\n  }\r\n\r\n  function AmendAccess(string fileHash, address userId, string token, uint role, bool isGrant, bytes32 data, uint8 v, bytes32 r, bytes32 s) public\r\n  {\r\n    address senderId = msg.sender;\r\n    if (ecrecover(data, v, r, s) != senderId)\r\n    {\r\n      return;\r\n    }\r\n\r\n    FileInfo storage fileInfo = UserInfo[senderId];\r\n    if (fileInfo.present == true)\r\n    {\r\n      AccessInfo storage accessInfo = fileInfo.info[fileHash];\r\n      if (accessInfo.present == true)\r\n      {\r\n        if (accessInfo.role & 0x2 != 0)\r\n        {\r\n          fileInfo = UserInfo[userId];\r\n          if (fileInfo.present == false)\r\n          {\r\n            fileInfo.present = true;\r\n            fileInfo.info[fileHash] = AccessInfo(true, token, role);\r\n          }\r\n          else\r\n          {\r\n            accessInfo = fileInfo.info[fileHash];\r\n            if (accessInfo.present == true)\r\n            {\r\n              if (isGrant == true)\r\n              {\r\n                accessInfo.role = accessInfo.role | role;\r\n              }\r\n              else\r\n              {\r\n                accessInfo.role = accessInfo.role & ~role;\r\n              }\r\n            }\r\n            else\r\n            {\r\n              fileInfo.info[fileHash] = AccessInfo(true, token, role);\r\n              FileList[userId].push(fileHash);\r\n              FileCount[userId]++;\r\n            }\r\n          }\r\n\r\n          UserInfo[userId] = fileInfo;\r\n        }\r\n      }\r\n    }\r\n  }\r\n\r\n  function DownloadFile(string fileHash, bytes32 data, uint8 v, bytes32 r, bytes32 s) public constant returns (bool)\r\n  {\r\n    address userId = msg.sender;\r\n    if (ecrecover(data, v, r, s) != userId)\r\n    {\r\n      return;\r\n    }\r\n\r\n    FileInfo storage fileInfo = UserInfo[userId];\r\n    if (fileInfo.present == true)\r\n    {\r\n      AccessInfo storage accessInfo = fileInfo.info[fileHash];\r\n      if (accessInfo.present == true)\r\n      {\r\n        if (accessInfo.role & 0x1 != 0)\r\n        {\r\n          return true;\r\n        }\r\n      }\r\n    }\r\n\r\n    return false;\r\n  }\r\n\r\n  function GetFileCount(bytes32 data, uint8 v, bytes32 r, bytes32 s) public constant returns (uint)\r\n  {\r\n    address userId = msg.sender;\r\n    if (ecrecover(data, v, r, s) != userId)\r\n    {\r\n      return;\r\n    }\r\n\r\n    return FileCount[userId];\r\n  }\r\n\r\n  function GetFileName(uint index, bytes32 data, uint8 v, bytes32 r, bytes32 s) public constant returns (string)\r\n  {\r\n    address userId = msg.sender;\r\n    if (ecrecover(data, v, r, s) != userId)\r\n    {\r\n      return;\r\n    }\r\n\r\n    return FileList[userId][index];\r\n  }\r\n\r\n  function GetToken(string fileHash, bytes32 data, uint8 v, bytes32 r, bytes32 s) public constant returns (string)\r\n  {\r\n    address userId = msg.sender;\r\n    if (ecrecover(data, v, r, s) != userId)\r\n    {\r\n      return;\r\n    }\r\n\r\n    return UserInfo[userId].info[fileHash].token;\r\n  }\r\n}\r\n",
  "sourcePath": "C:\\Users\\pra\\IdeaProjects\\Safeshare\\eureka\\src\\contracts\\AccessControlManager.sol",
  "compiler": {
    "name": "solc",
    "version": "0.4.19+commit.c4cbbb05.Emscripten.clang"
  },
  "schemaVersion": "2.0.0",
  "updatedAt": "2018-03-23T05:09:17.453Z"
}