{
  "contractName": "AccessControlManager",
  "abi": [
    {
      "constant": false,
      "inputs": [
        {
          "name": "fileHash",
          "type": "string"
        },
        {
          "name": "token",
          "type": "string"
        },
        {
          "name": "role",
          "type": "uint256"
        },
        {
          "name": "data",
          "type": "bytes32"
        },
        {
          "name": "v",
          "type": "uint8"
        },
        {
          "name": "r",
          "type": "bytes32"
        },
        {
          "name": "s",
          "type": "bytes32"
        }
      ],
      "name": "UploadFile",
      "outputs": [],
      "payable": false,
      "stateMutability": "nonpayable",
      "type": "function"
    },
    {
      "constant": false,
      "inputs": [
        {
          "name": "fileHash",
          "type": "string"
        },
        {
          "name": "userId",
          "type": "address"
        },
        {
          "name": "token",
          "type": "string"
        },
        {
          "name": "role",
          "type": "uint256"
        },
        {
          "name": "isGrant",
          "type": "bool"
        },
        {
          "name": "data",
          "type": "bytes32"
        },
        {
          "name": "v",
          "type": "uint8"
        },
        {
          "name": "r",
          "type": "bytes32"
        },
        {
          "name": "s",
          "type": "bytes32"
        }
      ],
      "name": "AmendAccess",
      "outputs": [],
      "payable": false,
      "stateMutability": "nonpayable",
      "type": "function"
    },
    {
      "constant": true,
      "inputs": [
        {
          "name": "fileHash",
          "type": "string"
        },
        {
          "name": "data",
          "type": "bytes32"
        },
        {
          "name": "v",
          "type": "uint8"
        },
        {
          "name": "r",
          "type": "bytes32"
        },
        {
          "name": "s",
          "type": "bytes32"
        }
      ],
      "name": "DownloadFile",
      "outputs": [
        {
          "name": "",
          "type": "bool"
        }
      ],
      "payable": false,
      "stateMutability": "view",
      "type": "function"
    },
    {
      "constant": true,
      "inputs": [
        {
          "name": "data",
          "type": "bytes32"
        },
        {
          "name": "v",
          "type": "uint8"
        },
        {
          "name": "r",
          "type": "bytes32"
        },
        {
          "name": "s",
          "type": "bytes32"
        }
      ],
      "name": "GetFileCount",
      "outputs": [
        {
          "name": "",
          "type": "uint256"
        }
      ],
      "payable": false,
      "stateMutability": "view",
      "type": "function"
    },
    {
      "constant": true,
      "inputs": [
        {
          "name": "index",
          "type": "uint256"
        },
        {
          "name": "data",
          "type": "bytes32"
        },
        {
          "name": "v",
          "type": "uint8"
        },
        {
          "name": "r",
          "type": "bytes32"
        },
        {
          "name": "s",
          "type": "bytes32"
        }
      ],
      "name": "GetFileName",
      "outputs": [
        {
          "name": "",
          "type": "string"
        }
      ],
      "payable": false,
      "stateMutability": "view",
      "type": "function"
    },
    {
      "constant": true,
      "inputs": [
        {
          "name": "fileHash",
          "type": "string"
        },
        {
          "name": "data",
          "type": "bytes32"
        },
        {
          "name": "v",
          "type": "uint8"
        },
        {
          "name": "r",
          "type": "bytes32"
        },
        {
          "name": "s",
          "type": "bytes32"
        }
      ],
      "name": "GetToken",
      "outputs": [
        {
          "name": "",
          "type": "string"
        }
      ],
      "payable": false,
      "stateMutability": "view",
      "type": "function"
    }
  ],
  "bytecode": "0x6060604052341561000f57600080fd5b6118578061001e6000396000f300606060405260043610610078576000357c0100000000000000000000000000000000000000000000000000000000900463ffffffff1680631e731d7b1461007d5780634d3d9a69146100de57806358a32656146101ba578063abc5ea3a146102c0578063f12af67a1461038f578063fea62d7c14610498575b600080fd5b341561008857600080fd5b6100c860048080356000191690602001909190803560ff169060200190919080356000191690602001909190803560001916906020019091905050610540565b6040518082815260200191505060405180910390f35b34156100e957600080fd5b6101b8600480803590602001908201803590602001908080601f0160208091040260200160405190810160405280939291908181526020018383808284378201915050505050509190803590602001908201803590602001908080601f016020809104026020016040519081016040528093929190818152602001838380828437820191505050505050919080359060200190919080356000191690602001909190803560ff169060200190919080356000191690602001909190803560001916906020019091905050610652565b005b34156101c557600080fd5b6102be600480803590602001908201803590602001908080601f0160208091040260200160405190810160405280939291908181526020018383808284378201915050505050509190803573ffffffffffffffffffffffffffffffffffffffff1690602001909190803590602001908201803590602001908080601f0160208091040260200160405190810160405280939291908181526020018383808284378201915050505050509190803590602001909190803515159060200190919080356000191690602001909190803560ff169060200190919080356000191690602001909190803560001916906020019091905050610a88565b005b34156102cb57600080fd5b61031460048080359060200190919080356000191690602001909190803560ff169060200190919080356000191690602001909190803560001916906020019091905050611087565b6040518080602001828103825283818151815260200191508051906020019080838360005b83811015610354578082015181840152602081019050610339565b50505050905090810190601f1680156103815780820380516001836020036101000a031916815260200191505b509250505060405180910390f35b341561039a57600080fd5b61041d600480803590602001908201803590602001908080601f016020809104026020016040519081016040528093929190818152602001838380828437820191505050505050919080356000191690602001909190803560ff169060200190919080356000191690602001909190803560001916906020019091905050611251565b6040518080602001828103825283818151815260200191508051906020019080838360005b8381101561045d578082015181840152602081019050610442565b50505050905090810190601f16801561048a5780820380516001836020036101000a031916815260200191505b509250505060405180910390f35b34156104a357600080fd5b610526600480803590602001908201803590602001908080601f016020809104026020016040519081016040528093929190818152602001838380828437820191505050505050919080356000191690602001909190803560ff169060200190919080356000191690602001909190803560001916906020019091905050611471565b604051808215151515815260200191505060405180910390f35b6000803390508073ffffffffffffffffffffffffffffffffffffffff16600187878787604051600081526020016040526000604051602001526040518085600019166000191681526020018460ff1660ff16815260200183600019166000191681526020018260001916600019168152602001945050505050602060405160208103908084039060008661646e5a03f115156105db57600080fd5b50506020604051035173ffffffffffffffffffffffffffffffffffffffff1614151561060657610649565b600260008273ffffffffffffffffffffffffffffffffffffffff1673ffffffffffffffffffffffffffffffffffffffff1681526020019081526020016000205491505b50949350505050565b6000803391508173ffffffffffffffffffffffffffffffffffffffff16600187878787604051600081526020016040526000604051602001526040518085600019166000191681526020018460ff1660ff16815260200183600019166000191681526020018260001916600019168152602001945050505050602060405160208103908084039060008661646e5a03f115156106ed57600080fd5b50506020604051035173ffffffffffffffffffffffffffffffffffffffff1614151561071857610a7d565b6000808373ffffffffffffffffffffffffffffffffffffffff1673ffffffffffffffffffffffffffffffffffffffff1681526020019081526020016000209050600015158160000160009054906101000a900460ff161515141561086e5760018160000160006101000a81548160ff02191690831515021790555060606040519081016040528060011515815260200189815260200188815250816001018a6040518082805190602001908083835b6020831015156107ec57805182526020820191506020810190506020830392506107c7565b6001836020036101000a038019825116818451168082178552505050505050905001915050908152602001604051809103902060008201518160000160006101000a81548160ff021916908315150217905550602082015181600101908051906020019061085b929190611652565b5060408201518160020155905050610945565b60606040519081016040528060011515815260200189815260200188815250816001018a6040518082805190602001908083835b6020831015156108c757805182526020820191506020810190506020830392506108a2565b6001836020036101000a038019825116818451168082178552505050505050905001915050908152602001604051809103902060008201518160000160006101000a81548160ff0219169083151502179055506020820151816001019080519060200190610936929190611652565b50604082015181600201559050505b806000808473ffffffffffffffffffffffffffffffffffffffff1673ffffffffffffffffffffffffffffffffffffffff1681526020019081526020016000206000820160009054906101000a900460ff168160000160006101000a81548160ff021916908315150217905550905050600160008373ffffffffffffffffffffffffffffffffffffffff1673ffffffffffffffffffffffffffffffffffffffff1681526020019081526020016000208054806001018281610a0591906116d2565b916000526020600020900160008b90919091509080519060200190610a2b9291906116fe565b5050600260008373ffffffffffffffffffffffffffffffffffffffff1673ffffffffffffffffffffffffffffffffffffffff168152602001908152602001600020600081548092919060010191905055505b505050505050505050565b60008060003392508273ffffffffffffffffffffffffffffffffffffffff16600188888888604051600081526020016040526000604051602001526040518085600019166000191681526020018460ff1660ff16815260200183600019166000191681526020018260001916600019168152602001945050505050602060405160208103908084039060008661646e5a03f11515610b2557600080fd5b50506020604051035173ffffffffffffffffffffffffffffffffffffffff16141515610b5057611079565b6000808473ffffffffffffffffffffffffffffffffffffffff1673ffffffffffffffffffffffffffffffffffffffff1681526020019081526020016000209150600115158260000160009054906101000a900460ff161515141561107857816001018c6040518082805190602001908083835b602083101515610be85780518252602082019150602081019050602083039250610bc3565b6001836020036101000a03801982511681845116808217855250505050505090500191505090815260200160405180910390209050600115158160000160009054906101000a900460ff16151514156110775760006002826002015416141515611076576000808c73ffffffffffffffffffffffffffffffffffffffff1673ffffffffffffffffffffffffffffffffffffffff1681526020019081526020016000209150600015158260000160009054906101000a900460ff1615151415610da25760018260000160006101000a81548160ff0219169083151502179055506060604051908101604052806001151581526020018b81526020018a815250826001018d6040518082805190602001908083835b602083101515610d205780518252602082019150602081019050602083039250610cfb565b6001836020036101000a038019825116818451168082178552505050505050905001915050908152602001604051809103902060008201518160000160006101000a81548160ff0219169083151502179055506020820151816001019080519060200190610d8f929190611652565b5060408201518160020155905050611006565b816001018c6040518082805190602001908083835b602083101515610ddc5780518252602082019150602081019050602083039250610db7565b6001836020036101000a03801982511681845116808217855250505050505090500191505090815260200160405180910390209050600115158160000160009054906101000a900460ff1615151415610e6657600115158815151415610e5057888160020154178160020181905550610e61565b881981600201541681600201819055505b611005565b6060604051908101604052806001151581526020018b81526020018a815250826001018d6040518082805190602001908083835b602083101515610ebf5780518252602082019150602081019050602083039250610e9a565b6001836020036101000a038019825116818451168082178552505050505050905001915050908152602001604051809103902060008201518160000160006101000a81548160ff0219169083151502179055506020820151816001019080519060200190610f2e929190611652565b5060408201518160020155905050600160008c73ffffffffffffffffffffffffffffffffffffffff1673ffffffffffffffffffffffffffffffffffffffff1681526020019081526020016000208054806001018281610f8d91906116d2565b916000526020600020900160008e90919091509080519060200190610fb39291906116fe565b5050600260008c73ffffffffffffffffffffffffffffffffffffffff1673ffffffffffffffffffffffffffffffffffffffff168152602001908152602001600020600081548092919060010191905055505b5b816000808d73ffffffffffffffffffffffffffffffffffffffff1673ffffffffffffffffffffffffffffffffffffffff1681526020019081526020016000206000820160009054906101000a900460ff168160000160006101000a81548160ff0219169083151502179055509050505b5b5b5b505050505050505050505050565b61108f61177e565b60003390508073ffffffffffffffffffffffffffffffffffffffff16600187878787604051600081526020016040526000604051602001526040518085600019166000191681526020018460ff1660ff16815260200183600019166000191681526020018260001916600019168152602001945050505050602060405160208103908084039060008661646e5a03f1151561112957600080fd5b50506020604051035173ffffffffffffffffffffffffffffffffffffffff1614151561115457611247565b600160008273ffffffffffffffffffffffffffffffffffffffff1673ffffffffffffffffffffffffffffffffffffffff168152602001908152602001600020878154811015156111a057fe5b90600052602060002090018054600181600116156101000203166002900480601f01602080910402602001604051908101604052809291908181526020018280546001816001161561010002031660029004801561123f5780601f106112145761010080835404028352916020019161123f565b820191906000526020600020905b81548152906001019060200180831161122257829003601f168201915b505050505091505b5095945050505050565b61125961177e565b60003390508073ffffffffffffffffffffffffffffffffffffffff16600187878787604051600081526020016040526000604051602001526040518085600019166000191681526020018460ff1660ff16815260200183600019166000191681526020018260001916600019168152602001945050505050602060405160208103908084039060008661646e5a03f115156112f357600080fd5b50506020604051035173ffffffffffffffffffffffffffffffffffffffff1614151561131e57611467565b6000808273ffffffffffffffffffffffffffffffffffffffff1673ffffffffffffffffffffffffffffffffffffffff168152602001908152602001600020600101876040518082805190602001908083835b6020831015156113955780518252602082019150602081019050602083039250611370565b6001836020036101000a03801982511681845116808217855250505050505090500191505090815260200160405180910390206001018054600181600116156101000203166002900480601f01602080910402602001604051908101604052809291908181526020018280546001816001161561010002031660029004801561145f5780601f106114345761010080835404028352916020019161145f565b820191906000526020600020905b81548152906001019060200180831161144257829003601f168201915b505050505091505b5095945050505050565b6000806000803392508273ffffffffffffffffffffffffffffffffffffffff16600189898989604051600081526020016040526000604051602001526040518085600019166000191681526020018460ff1660ff16815260200183600019166000191681526020018260001916600019168152602001945050505050602060405160208103908084039060008661646e5a03f1151561150f57600080fd5b50506020604051035173ffffffffffffffffffffffffffffffffffffffff1614151561153a57611646565b6000808473ffffffffffffffffffffffffffffffffffffffff1673ffffffffffffffffffffffffffffffffffffffff1681526020019081526020016000209150600115158260000160009054906101000a900460ff16151514156116415781600101896040518082805190602001908083835b6020831015156115d257805182526020820191506020810190506020830392506115ad565b6001836020036101000a03801982511681845116808217855250505050505090500191505090815260200160405180910390209050600115158160000160009054906101000a900460ff1615151415611640576000600182600201541614151561163f5760019350611646565b5b5b600093505b50505095945050505050565b828054600181600116156101000203166002900490600052602060002090601f016020900481019282601f1061169357805160ff19168380011785556116c1565b828001600101855582156116c1579182015b828111156116c05782518255916020019190600101906116a5565b5b5090506116ce9190611792565b5090565b8154818355818115116116f9578183600052602060002091820191016116f891906117b7565b5b505050565b828054600181600116156101000203166002900490600052602060002090601f016020900481019282601f1061173f57805160ff191683800117855561176d565b8280016001018555821561176d579182015b8281111561176c578251825591602001919060010190611751565b5b50905061177a9190611792565b5090565b602060405190810160405280600081525090565b6117b491905b808211156117b0576000816000905550600101611798565b5090565b90565b6117e091905b808211156117dc57600081816117d391906117e3565b506001016117bd565b5090565b90565b50805460018160011615610100020316600290046000825580601f106118095750611828565b601f0160209004906000526020600020908101906118279190611792565b5b505600a165627a7a72305820a597dbfd020ebec358c03abf968986b1a5b9130bf228945c630bde2e2f8999360029",
  "source": "pragma solidity ^0.4.2;\r\n\r\ncontract AccessControlManager\r\n{\r\n  struct AccessInfo\r\n  {\r\n    bool present;\r\n    string token;\r\n    uint role; // <unused> grant | download\r\n  }\r\n\r\n  struct FileInfo\r\n  {\r\n    bool present;\r\n    mapping (string => AccessInfo) info;\r\n  }\r\n\r\n  mapping (address => FileInfo) private UserInfo;\r\n  mapping (address => string[]) private FileList;\r\n  mapping (address => uint) private FileCount;\r\n  \r\n  function UploadFile(string fileHash, string token, uint role, bytes32 data, uint8 v, bytes32 r, bytes32 s) public\r\n  {\r\n    address userId = msg.sender;\r\n    if (ecrecover(data, v, r, s) != userId)\r\n    {\r\n      return;\r\n    }\r\n\r\n    FileInfo storage fileInfo = UserInfo[userId];\r\n    if (fileInfo.present == false)\r\n    {\r\n      fileInfo.present = true;\r\n      fileInfo.info[fileHash] = AccessInfo(true, token, role);\r\n    }\r\n    else\r\n    {\r\n      fileInfo.info[fileHash] = AccessInfo(true, token, role);\r\n    }\r\n\r\n    UserInfo[userId] = fileInfo;\r\n    FileList[userId].push(fileHash);\r\n    FileCount[userId]++;\r\n  }\r\n\r\n  function AmendAccess(string fileHash, address userId, string token, uint role, bool isGrant, bytes32 data, uint8 v, bytes32 r, bytes32 s) public\r\n  {\r\n    address senderId = msg.sender;\r\n    if (ecrecover(data, v, r, s) != senderId)\r\n    {\r\n      return;\r\n    }\r\n\r\n    FileInfo storage fileInfo = UserInfo[senderId];\r\n    if (fileInfo.present == true)\r\n    {\r\n      AccessInfo storage accessInfo = fileInfo.info[fileHash];\r\n      if (accessInfo.present == true)\r\n      {\r\n        if (accessInfo.role & 0x2 != 0)\r\n        {\r\n          fileInfo = UserInfo[userId];\r\n          if (fileInfo.present == false)\r\n          {\r\n            fileInfo.present = true;\r\n            fileInfo.info[fileHash] = AccessInfo(true, token, role);\r\n          }\r\n          else\r\n          {\r\n            accessInfo = fileInfo.info[fileHash];\r\n            if (accessInfo.present == true)\r\n            {\r\n              if (isGrant == true)\r\n              {\r\n                accessInfo.role = accessInfo.role | role;\r\n              }\r\n              else\r\n              {\r\n                accessInfo.role = accessInfo.role & ~role;\r\n              }\r\n            }\r\n            else\r\n            {\r\n              fileInfo.info[fileHash] = AccessInfo(true, token, role);\r\n              FileList[userId].push(fileHash);\r\n              FileCount[userId]++;\r\n            }\r\n          }\r\n\r\n          UserInfo[userId] = fileInfo;\r\n        }\r\n      }\r\n    }\r\n  }\r\n\r\n  function DownloadFile(string fileHash, bytes32 data, uint8 v, bytes32 r, bytes32 s) public constant returns (bool)\r\n  {\r\n    address userId = msg.sender;\r\n    if (ecrecover(data, v, r, s) != userId)\r\n    {\r\n      return;\r\n    }\r\n\r\n    FileInfo storage fileInfo = UserInfo[userId];\r\n    if (fileInfo.present == true)\r\n    {\r\n      AccessInfo storage accessInfo = fileInfo.info[fileHash];\r\n      if (accessInfo.present == true)\r\n      {\r\n        if (accessInfo.role & 0x1 != 0)\r\n        {\r\n          return true;\r\n        }\r\n      }\r\n    }\r\n\r\n    return false;\r\n  }\r\n\r\n  function GetFileCount(bytes32 data, uint8 v, bytes32 r, bytes32 s) public constant returns (uint)\r\n  {\r\n    address userId = msg.sender;\r\n    if (ecrecover(data, v, r, s) != userId)\r\n    {\r\n      return;\r\n    }\r\n\r\n    return FileCount[userId];\r\n  }\r\n\r\n  function GetFileName(uint index, bytes32 data, uint8 v, bytes32 r, bytes32 s) public constant returns (string)\r\n  {\r\n    address userId = msg.sender;\r\n    if (ecrecover(data, v, r, s) != userId)\r\n    {\r\n      return;\r\n    }\r\n\r\n    return FileList[userId][index];\r\n  }\r\n\r\n  function GetToken(string fileHash, bytes32 data, uint8 v, bytes32 r, bytes32 s) public constant returns (string)\r\n  {\r\n    address userId = msg.sender;\r\n    if (ecrecover(data, v, r, s) != userId)\r\n    {\r\n      return;\r\n    }\r\n\r\n    return UserInfo[userId].info[fileHash].token;\r\n  }\r\n}\r\n",
  "sourcePath": "C:\\Users\\pra\\IdeaProjects\\Safeshare\\eureka\\src\\contracts\\AccessControlManager.sol",
  "compiler": {
    "name": "solc",
    "version": "0.4.19+commit.c4cbbb05.Emscripten.clang"
  },
  "schemaVersion": "2.0.0",
  "updatedAt": "2018-03-23T01:18:27.553Z"
}