{
  "contractName": "AccessControlManager",
  "abi": [
    {
      "constant": false,
      "inputs": [
        {
          "name": "fileHash",
          "type": "string"
        },
        {
          "name": "userId",
          "type": "string"
        },
        {
          "name": "token",
          "type": "string"
        },
        {
          "name": "role",
          "type": "uint256"
        },
        {
          "name": "signature",
          "type": "string"
        }
      ],
      "name": "UploadFile",
      "outputs": [],
      "payable": false,
      "stateMutability": "nonpayable",
      "type": "function"
    },
    {
      "constant": false,
      "inputs": [
        {
          "name": "fileHash",
          "type": "string"
        },
        {
          "name": "senderId",
          "type": "string"
        },
        {
          "name": "userId",
          "type": "string"
        },
        {
          "name": "token",
          "type": "string"
        },
        {
          "name": "role",
          "type": "uint256"
        },
        {
          "name": "signature",
          "type": "string"
        }
      ],
      "name": "AmendAccessInfo",
      "outputs": [],
      "payable": false,
      "stateMutability": "nonpayable",
      "type": "function"
    },
    {
      "constant": true,
      "inputs": [
        {
          "name": "fileHash",
          "type": "string"
        },
        {
          "name": "userId",
          "type": "string"
        },
        {
          "name": "signature",
          "type": "string"
        }
      ],
      "name": "DownloadFile",
      "outputs": [
        {
          "name": "",
          "type": "bool"
        }
      ],
      "payable": false,
      "stateMutability": "view",
      "type": "function"
    }
  ],
  "bytecode": "0x6060604052341561000f57600080fd5b610ddf8061001e6000396000f300606060405260043610610057576000357c0100000000000000000000000000000000000000000000000000000000900463ffffffff1680634e45f0ec1461005c578063d7b1ab9514610157578063e2de7947146102c9575b600080fd5b341561006757600080fd5b61013d600480803590602001908201803590602001908080601f0160208091040260200160405190810160405280939291908181526020018383808284378201915050505050509190803590602001908201803590602001908080601f0160208091040260200160405190810160405280939291908181526020018383808284378201915050505050509190803590602001908201803590602001908080601f016020809104026020016040519081016040528093929190818152602001838380828437820191505050505050919050506103f8565b604051808215151515815260200191505060405180910390f35b341561016257600080fd5b6102c7600480803590602001908201803590602001908080601f0160208091040260200160405190810160405280939291908181526020018383808284378201915050505050509190803590602001908201803590602001908080601f0160208091040260200160405190810160405280939291908181526020018383808284378201915050505050509190803590602001908201803590602001908080601f0160208091040260200160405190810160405280939291908181526020018383808284378201915050505050509190803590602001908201803590602001908080601f0160208091040260200160405190810160405280939291908181526020018383808284378201915050505050509190803590602001909190803590602001908201803590602001908080601f0160208091040260200160405190810160405280939291908181526020018383808284378201915050505050509190505061053e565b005b34156102d457600080fd5b6103f6600480803590602001908201803590602001908080601f0160208091040260200160405190810160405280939291908181526020018383808284378201915050505050509190803590602001908201803590602001908080601f0160208091040260200160405190810160405280939291908181526020018383808284378201915050505050509190803590602001908201803590602001908080601f0160208091040260200160405190810160405280939291908181526020018383808284378201915050505050509190803590602001909190803590602001908201803590602001908080601f01602080910402602001604051908101604052809392919081815260200183838082843782019150505050505091905050610a0f565b005b600080600080856040518082805190602001908083835b602083101515610434578051825260208201915060208101905060208303925061040f565b6001836020036101000a03801982511681845116808217855250505050505090500191505090815260200160405180910390209150600115158260000160009054906101000a900460ff16151514156105305781600101866040518082805190602001908083835b6020831015156104c1578051825260208201915060208101905060208303925061049c565b6001836020036101000a03801982511681845116808217855250505050505090500191505090815260200160405180910390209050600115158160000160009054906101000a900460ff161515141561052f576000600182600201541614151561052e5760019250610535565b5b5b600092505b50509392505050565b6000806000876040518082805190602001908083835b6020831015156105795780518252602082019150602081019050602083039250610554565b6001836020036101000a03801982511681845116808217855250505050505090500191505090815260200160405180910390209150600115158260000160009054906101000a900460ff1615151415610a055781600101886040518082805190602001908083835b60208310151561060657805182526020820191506020810190506020830392506105e1565b6001836020036101000a03801982511681845116808217855250505050505090500191505090815260200160405180910390209050600115158160000160009054906101000a900460ff1615151415610a045760006002826002015416141515610a03576000866040518082805190602001908083835b6020831015156106a2578051825260208201915060208101905060208303925061067d565b6001836020036101000a03801982511681845116808217855250505050505090500191505090815260200160405180910390209150600015158260000160009054906101000a900460ff16151514156107ed5760018260000160006101000a81548160ff0219169083151502179055506060604051908101604052806001151581526020018681526020018581525082600101896040518082805190602001908083835b60208310151561076b5780518252602082019150602081019050602083039250610746565b6001836020036101000a038019825116818451168082178552505050505050905001915050908152602001604051809103902060008201518160000160006101000a81548160ff02191690831515021790555060208201518160010190805190602001906107da929190610d0e565b5060408201518160020155905050610966565b81600101886040518082805190602001908083835b6020831015156108275780518252602082019150602081019050602083039250610802565b6001836020036101000a03801982511681845116808217855250505050505090500191505090815260200160405180910390209050600115158160000160009054906101000a900460ff161515141561088e57838160020154178160020181905550610965565b6060604051908101604052806001151581526020018681526020018581525082600101896040518082805190602001908083835b6020831015156108e757805182526020820191506020810190506020830392506108c2565b6001836020036101000a038019825116818451168082178552505050505050905001915050908152602001604051809103902060008201518160000160006101000a81548160ff0219169083151502179055506020820151816001019080519060200190610956929190610d0e565b50604082015181600201559050505b5b816000876040518082805190602001908083835b60208310151561099f578051825260208201915060208101905060208303925061097a565b6001836020036101000a03801982511681845116808217855250505050505090500191505090815260200160405180910390206000820160009054906101000a900460ff168160000160006101000a81548160ff0219169083151502179055509050505b5b5b5050505050505050565b600080856040518082805190602001908083835b602083101515610a485780518252602082019150602081019050602083039250610a23565b6001836020036101000a03801982511681845116808217855250505050505090500191505090815260200160405180910390209050600015158160000160009054906101000a900460ff1615151415610b935760018160000160006101000a81548160ff0219169083151502179055506060604051908101604052806001151581526020018581526020018481525081600101876040518082805190602001908083835b602083101515610b115780518252602082019150602081019050602083039250610aec565b6001836020036101000a038019825116818451168082178552505050505050905001915050908152602001604051809103902060008201518160000160006101000a81548160ff0219169083151502179055506020820151816001019080519060200190610b80929190610d0e565b5060408201518160020155905050610c6a565b6060604051908101604052806001151581526020018581526020018481525081600101876040518082805190602001908083835b602083101515610bec5780518252602082019150602081019050602083039250610bc7565b6001836020036101000a038019825116818451168082178552505050505050905001915050908152602001604051809103902060008201518160000160006101000a81548160ff0219169083151502179055506020820151816001019080519060200190610c5b929190610d0e565b50604082015181600201559050505b806000866040518082805190602001908083835b602083101515610ca35780518252602082019150602081019050602083039250610c7e565b6001836020036101000a03801982511681845116808217855250505050505090500191505090815260200160405180910390206000820160009054906101000a900460ff168160000160006101000a81548160ff021916908315150217905550905050505050505050565b828054600181600116156101000203166002900490600052602060002090601f016020900481019282601f10610d4f57805160ff1916838001178555610d7d565b82800160010185558215610d7d579182015b82811115610d7c578251825591602001919060010190610d61565b5b509050610d8a9190610d8e565b5090565b610db091905b80821115610dac576000816000905550600101610d94565b5090565b905600a165627a7a7230582033957b2e3cc611e46b6adb361874800869f4289ab8bba0658979b74109d757c80029",
  "source": "pragma solidity ^0.4.2;\r\n\r\ncontract AccessControlManager\r\n{\r\n  struct AccessInfo\r\n  {\r\n    bool present;\r\n    string token;\r\n    uint role; // <unused> grant | download\r\n  }\r\n\r\n  struct FileInfo\r\n  {\r\n    bool present;\r\n    mapping (string => AccessInfo) info;\r\n  }\r\n\r\n  mapping (string => FileInfo) private UserInfo;\r\n  \r\n  function UploadFile(string fileHash, string userId, string token, uint role, string signature) public\r\n  {\r\n    // Check signature\r\n\r\n    FileInfo storage fileInfo = UserInfo[userId];\r\n    if (fileInfo.present == false)\r\n    {\r\n      fileInfo.present = true;\r\n      fileInfo.info[fileHash] = AccessInfo(true, token, role);\r\n    }\r\n    else\r\n    {\r\n      fileInfo.info[fileHash] = AccessInfo(true, token, role);\r\n    }\r\n\r\n    UserInfo[userId] = fileInfo;\r\n  }\r\n\r\n  function AmendAccessInfo(string fileHash, string senderId, string userId, string token, uint role, string signature) public\r\n  {\r\n    // Check signature\r\n\r\n    FileInfo storage fileInfo = UserInfo[senderId];\r\n    if (fileInfo.present == true)\r\n    {\r\n      AccessInfo storage accessInfo = fileInfo.info[fileHash];\r\n      if (accessInfo.present == true)\r\n      {\r\n        if (accessInfo.role & 0x2 != 0)\r\n        {\r\n          fileInfo = UserInfo[userId];\r\n          if (fileInfo.present == false)\r\n          {\r\n            fileInfo.present = true;\r\n            fileInfo.info[fileHash] = AccessInfo(true, token, role);\r\n          }\r\n          else\r\n          {\r\n            accessInfo = fileInfo.info[fileHash];\r\n            if (accessInfo.present == true)\r\n            {\r\n              accessInfo.role = accessInfo.role | role;\r\n            }\r\n            else\r\n            {\r\n              fileInfo.info[fileHash] = AccessInfo(true, token, role);\r\n            }\r\n          }\r\n\r\n          UserInfo[userId] = fileInfo;\r\n        }\r\n      }\r\n    }\r\n  }\r\n\r\n  function DownloadFile(string fileHash, string userId, string signature) public constant returns (bool)\r\n  {\r\n    // Check signature\r\n\r\n    FileInfo storage fileInfo = UserInfo[userId];\r\n    if (fileInfo.present == true)\r\n    {\r\n      AccessInfo storage accessInfo = fileInfo.info[fileHash];\r\n      if (accessInfo.present == true)\r\n      {\r\n        if (accessInfo.role & 0x1 != 0)\r\n        {\r\n          return true;\r\n        }\r\n      }\r\n    }\r\n\r\n    return false;\r\n  }\r\n}\r\n",
  "sourcePath": "C:\\Users\\pra\\IdeaProjects\\Safeshare\\eureka\\src\\contracts\\AccessControlManager.sol",
  "compiler": {
    "name": "solc",
    "version": "0.4.19+commit.c4cbbb05.Emscripten.clang"
  },
  "schemaVersion": "2.0.0",
  "updatedAt": "2018-03-22T22:17:58.079Z"
}